:020000040800F2
:1000000000000220210600087106000871060008A1
:100010007106000871060008710600080000000063
:100020000000000000000000000000007106000851
:100030007106000800000000710600087106000843
:1000400071060008710600087106000871060008B4
:100050000000000071060008710600087106000823
:100060007106000871060008710600087106000894
:100070007106000871060008710600087106000884
:100080007106000871060008710600087106000874
:100090007106000871060008710600087106000864
:1000A0007106000871060008710600087106000854
:1000B0007106000871060008710600087106000844
:1000C0007106000871060008710600087106000834
:1000D000710600087106000859040008710600083E
:1000E0007106000871060008710600087106000814
:1000F0007106000871060008710600087106000804
:1001000071060008710600087106000871060008F3
:1001100071060008710600087106000871060008E3
:1001200071060008710600087106000871060008D3
:1001300071060008710600087106000871060008C3
:1001400071060008710600087106000871060008B3
:1001500071060008710600087106000871060008A3
:100160007106000871060008710600087106000893
:100170007106000871060008710600087106000883
:100180007106000871060008000000000000000071
:10019000000000000000000000000000000000005F
:0801A000710600087106000859
:1001B00010B5054C237833B9044B13B10448AFF3A1
:1001C00000800123237010BD840000200000000087
:1001D000A424000808B5034B1BB103490348AFF33F
:1001E000008008BD0000000088000020A424000852
:1001F000034613F8012B002AFBD1181A0138704767
:1002000001F0FF01102A2BDB10F0070F08D010F8C7
:10021000013B013A8B422DD010F0070F42B3F6D1CB
:10022000F0B441EA012141EA014122F007047FF0E4
:1002300000070023F0E80256083C85EA010586EA3B
:10024000010685FA47F5A3FA87F586FA47F6A5FA77
:1002500087F68EB9EED1F0BC01F0FF0102F0070283
:1002600032B110F8013B013A83EA010313B1F8D12E
:100270000020704701387047002D06BF354603380F
:10028000073815F0010F07D1013015F4807F02BF48
:10029000013015F4C03F0130F0BC0138704700BF99
:1002A00080B500AF0D4B0E4A1A600C4B4FF4E13293
:1002B0009A600A4B0022DA73084B02221A71074B2C
:1002C00000221A73054B00225A73044B00229A73C2
:1002D000024800F027FD00BF80BD00BFA004002041
:1002E0000044004080B584B000AF0E4B7B60022319
:1002F0007B7200233B730123FB720223BB72072333
:100300007B7302233B723B1D184600F037FA032330
:100310003B723B1D184600F031FA00BF1037BD4656
:1003200080BD00BF0000024080B483B000AF002356
:100330007B6002E07B6801337B607B68044A934208
:10034000F8D900BF00BF0C37BD4680BC704700BF66
:100350008FD0030090B583B000AF00237B60FFF720
:10036000C1FFFFF79DFF0121262000F047FE01217C
:100370002F4800F05AFD2F4801F01EF900BF002160
:100380002D4800F097FB0346002BF8D0FFF7CCFF79
:100390007A682A4BA3FB021359080B465B000B44F7
:1003A000D31A7B6000BF264A7B6852F82330184678
:1003B000FFF71EFF03461A462249234800F0F6FDC8
:1003C0000346002BEFD11E4A7B6852F823401C4A9B
:1003D0007B6852F823301846FFF70AFF03461A4697
:1003E0002146194800F094FD154A7B6852F82330E5
:1003F0001946164801F05AF800BF154B1B78012B1F
:10040000FBD10F4A7B6852F823301846FFF7F0FE05
:10041000034601330B4A0021D1540A490D4801F02B
:1004200045F80B4B00221A707B6801337B60A5E70F
:1004300000440040F424000800000240ABAAAAAA2D
:1004400000000020A0000020A00400200C250008CF
:10045000C40400202025000880B500AF024800F049
:1004600051FE00BF80BD00BFA004002080B483B057
:1004700000AF78600B46FB70FB78012B02D1044B78
:1004800001221A7000BF0C37BD4680BC704700BF08
:10049000C404002080B483B000AF0346FB710E4B50
:1004A0001B680D4A43F0807313600C4B1B680B4AAA
:1004B00043F00103136000BF4FF060431B6803F07B
:1004C0000103002BF8D04FF06042FB79136000BFAE
:1004D0000C37BD4680BC7047FCED00E0000E00E02C
:1004E00080B586B000AFF860B9607A6000237B61A8
:1004F0000AE0AFF300800146BB685A1CBA60CAB27A
:100500001A707B6901337B617A697B689A42F0DB00
:100510007B6818461837BD4680BD80B586B000AFF1
:10052000F860B9607A6000237B6109E0BB685A1CFF
:10053000BA601B781846FFF7ADFF7B6901337B611A
:100540007A697B689A42F1DB7B6818461837BD46AA
:1005500080BD80B483B000AF78604FF0FF331846A1
:100560000C37BD4680BC704780B483B000AF786064
:1005700039603B684FF400525A60002318460C372C
:10058000BD4680BC704780B483B000AF7860012363
:1005900018460C37BD4680BC704780B485B000AFAC
:1005A000F860B9607A60002318461437BD4680BCF5
:1005B0007047000080B586B000AF7860144A154BD4
:1005C000D31A7B617B693B61134B1B68002B02D103
:1005D000114B124A1A60104B1A687B6813443A692F
:1005E0009A4207D200F030FF03460C221A604FF007
:1005F000FF3309E0084B1B68FB60074B1A687B68F8
:100600001344054A1360FB6818461837BD4680BD81
:100610000000022000040000C8040020E0040020C4
:100620000D488546AFF300800C480D490D4A002364
:1006300002E0D458C4500433C4188C42F9D30A4A97
:100640000A4C002301E013600432A242FBD300F005
:1006500001FFFFF77FFEFEE7000002200000002000
:1006600084000020D425000884000020DC04002041
:10067000FEE7000080B483B000AF78600B46FB70EB
:10068000FB78012B61D17B68324A934206D1324B11
:100690001B6B314A43F00103136356E07B682F4A1A
:1006A000934206D12C4B1B6B2B4A43F0020313637E
:1006B0004BE07B682A4A934206D1274B1B6B264AA4
:1006C00043F00403136340E07B68264A934206D15B
:1006D000214B1B6B204A43F00803136335E07B6812
:1006E000214A934206D11C4B1B6B1B4A43F010035B
:1006F00013632AE07B681D4A934206D1164B1B6B9D
:10070000154A43F0200313631FE07B68184A9342A5
:1007100006D1114B1B6B104A43F04003136314E0E6
:100720007B68144A934206D10B4B1B6B0A4A43F079
:100730008003136309E07B680F4A934205D1064B9F
:100740001B6B054A43F48073136300BF0C37BD462F
:1007500080BC7047000002400038024000040240A4
:1007600000080240000C0240001002400014024049
:1007700000180240001C02400020024080B586B0F4
:1007800000AF786000237B617B681B6801211846FD
:10079000FFF770FF7B685B79032B20D87B685B7960
:1007A0001A467B681B795B0002FA03F37B617B6866
:1007B0001B681A687B681B795B00032101FA03F34D
:1007C000DB4319467B681B680A401A607B681B681C
:1007D00019687B681B687A690A431A60CBE07B68FA
:1007E0005B79042B17D14B4BDB687A681279114681
:1007F00001228A401146474A0B43D360454B9B6810
:100800007A681279114601228A40D2431146414A40
:100810000B40936035E07B685B79052B17D13D4B2E
:100820009B687A681279114601228A401146394A3A
:100830000B439360374BDB687A68127911460122CB
:100840008A40D2431146334A0B40D36019E07B689B
:100850005B79062B15D12F4B9B687A68127911466C
:1008600001228A4011462B4A0B439360294BDB68D7
:100870007A681279114601228A401146254A0B43B3
:10088000D3607B681B799B08FB747B681B7903F042
:100890000303BB747B681B681F4A93424ED07B687E
:1008A0001B681E4A934232D07B681B681C4A9342E5
:1008B0002BD07B681B681B4A934224D07B681B6843
:1008C000194A93421DD07B681B68184A934216D080
:1008D0007B681B68164A93420FD07B681B68154AD9
:1008E000934208D07B681B68134A934201D10823C6
:1008F00025E0002323E0072321E006231FE0052352
:100900001DE004231BE0032319E0022317E0012369
:1009100015E000BF003C014000000240000402401E
:1009200000080240000C0240001002400014024087
:1009300000180240001C02400020024000237B748B
:10094000594B5B6C584A43F4804353647A7CBB7CBC
:100950009B0002FA03F1554AFB7C023342F8231054
:10096000534B1B687A681279114601228A4011465E
:100970004F4A0B4313607B689B791A467B681B794F
:100980005B0002FA03F37B617B681B689A687B68F3
:100990001B795B00032101FA03F3DB4319467B68F3
:1009A0001B680A409A607B681B6899687B681B68B3
:1009B0007A690A439A607B68DB791A467B681B79FF
:1009C0005B0002FA03F37B617B681B68DA687B6873
:1009D0001B795B00032101FA03F3DB4319467B68B3
:1009E0001B680A40DA607B681B68D9687B681B68F3
:1009F0007A690A43DA607B681B7A1A467B681B793E
:100A000002FA03F37B617B681B685A687B681B7979
:100A1000194601238B40DB4319467B681B680A405B
:100A20005A607B681B6859687B681B687A690A434F
:100A30005A607B685B79022B31D17B681B79DB08BC
:100A40003B747B681B7903F00703FB737B681B68AF
:100A50003A7C083253F82210FB7B9B000F2202FAEB
:100A600003F3DB4318467B681B683A7C014008327D
:100A700043F822107B681B683A7C083253F8221036
:100A80007B685B7A1A46FB7B9B0002FA03F31846ED
:100A90007B681B683A7C0143083243F8221000BF90
:100AA0001837BD4680BD00BF003802400038014005
:100AB000003C014080B485B000AF78600B46FB700D
:100AC0007B681A69FB7822FA03F3DBB203F00103B7
:100AD000FB73FB7B18461437BD4680BC7047000093
:100AE00080B584B000AF254B9B689B08DBB203F058
:100AF00003037B727B7A002B02D1214BFB600BE05E
:100B00007B7A012B02D11F4BFB6005E07B7A022B25
:100B100002D100F08DF8F860184B9B681B09DBB21E
:100B200003F00F033B723B7A072B02D80123FB72C1
:100B300005E03B7A083B144A32F81330FB720F4B46
:100B40009B689B0ADBB203F007033B723B7A032BE3
:100B500002D80123BB7204E03B7A043B0B4AD35C0E
:100B6000BB72FB7AFA68B2FBF3F2BB7AB2FBF3F327
:100B70007B607B6818461037BD4680BD0038024058
:100B80000024F40000127A000C0000201C00002059
:100B900080B485B000AF0023FB60204B9B689B08AE
:100BA000DBB203F003037B727B7A002B02D11C4B78
:100BB000FB6001E01B4BFB60184B9B681B0903F0BB
:100BC0000F037B607B68072B02D80123FB7205E0D3
:100BD0007B68083B144A32F81330FB720F4B9B685A
:100BE0005B0B03F007037B607B68032B02D80123B8
:100BF000BB7204E07B68043B0C4AD35CBB72FB7A9B
:100C0000FA68B2FBF3F2BB7AB2FBF3F33B603B68EA
:100C100018461437BD4680BC704700BF00380240FC
:100C20000024F40000127A000C0000201C000020B8
:100C300080B400AF00231846BD4680BC704700005A
:100C400080B588B000AF7860396000233B617B6875
:100C5000314A934203D07B68304A934203D1FFF775
:100C600097FFF86102E0FFF73BFFF8617B68DB6804
:100C700003F40043002B0BD0FA6913469B00134486
:100C80009A001A443B685B00B2FBF3F3BB610AE0D5
:100C9000FA6913469B0013449A001A443B689B0070
:100CA000B2FBF3F3BB61BB691D4AA2FB03235B09E3
:100CB000FB60FB681B013A6913433B61FB686422DC
:100CC00002FB03F3BA69D31A7B617B68DB6803F428
:100CD0000043002B0AD07B69DB003233104AA2FBB1
:100CE00003235B0903F007037B6109E07B691B01B8
:100CF00032330B4AA2FB03235B0903F00F037B6132
:100D00003A697B6913433B617B683A699A6000BF2B
:100D10002037BD4680BD00BF0010014000140140D7
:100D20001F85EB5180B584B000AF78600023FB6075
:100D30007B681B680121184600F092F87B681B79DC
:100D4000012B04D1FB6843F00403FB6010E07B68D7
:100D50001B79002B04D1FB6843F00803FB6007E01C
:100D60007B681B79022B03D1FB6843F00C03FB600B
:100D70007B685B7B1B031A46FB681343FB607B6845
:100D80009B7B012B04D1FB6843F48063FB600BE089
:100D90007B689B7B022B07D1FB6843F48063FB607D
:100DA000FB6843F40073FB607B681B68FA68DA60D9
:100DB0000023FB607B681B7B1B031A46FB68134305
:100DC000FB607B681B68FA681A610023FB607B6824
:100DD000DB7B012B04D1FB6843F40073FB6014E060
:100DE0007B68DB7B022B04D1FB6843F48073FB60E0
:100DF0000BE07B68DB7B032B07D1FB6843F40073BC
:100E0000FB60FB6843F48073FB607B681B68FA68D7
:100E10005A617B681A687B689B6819461046FFF721
:100E20000FFF00BF1037BD4680BD80B483B000AF58
:100E300078600B46FB70FB78012B06D17B68DB6882
:100E400043F400527B68DA6005E07B68DB6823F4DA
:100E500000527B68DA6000BF0C37BD4680BC70472B
:100E600080B483B000AF78600B46FB70FB78012B39
:100E70002AD17B68174A934206D1174B5B6C164AFE
:100E800043F0100353641FE07B68144A934206D179
:100E9000114B1B6C104A43F40033136414E07B685D
:100EA0000F4A934206D10C4B1B6C0B4A43F4802330
:100EB000136409E07B680B4A934205D1064B1B6C17
:100EC000054A43F40023136400BF0C37BD4680BCC1
:100ED000704700BF0010014000380240004400404D
:100EE00000480040004C004080B483B000AF786000
:100EF0000B46FB707B681A68FB781340002B01D00F
:100F0000012300E0002318460C37BD4680BC704723
:100F100080B586B000AFF860B9607A6000237B616D
:100F200031E000BFFB681B6880211846FFF7DCFF3B
:100F30000346002BF6D0FB685B7B012B18D1BB6806
:100F40003B613B691B881A46FB681B68C2F30802B9
:100F50005A60FB689B7B002B06D1BB680133BB60EA
:100F6000BB680133BB600BE0BB680133BB6007E0CB
:100F7000BB681A78FB681B685A60BB680133BB60AA
:100F80007B6901337B617A697B689A42C9D300BF70
:100F9000FB681B6840211846FFF7A6FF0346002B9D
:100FA000F6D000BF00BF1837BD4680BD80B487B003
:100FB00000AFF860B9607A60FB6893F82130FB7588
:100FC000FB7D012B14D0FB687A68DA61FB68BA6894
:100FD0005A61FB68012283F82120FB681B685B686B
:100FE000FB681B68DA68FB681B6842F02002DA6065
:100FF000FB7D18461C37BD4680BC704780B483B06B
:1010000000AF03460A46FB711346BB71BB79012B47
:1010100033D1FB791F2B0AD8344B1B68FA79012195
:1010200001FA02F21146314A0B43136059E0FB7991
:101030001F2B0FD9FB793F2B0CD82D4B1B68FA794E
:1010400002F01F02012101FA02F21146284A0B4365
:10105000136046E0FB793F2B43D9FB795F2B40D8E7
:10106000244B1B68FA7902F03F02012101FA02F2D7
:101070001146204A0B43136033E0FB791F2B0AD83B
:101080001D4B1B68FA79012101FA02F211461A4A36
:101090000B43136025E0FB791F2B0FD9FB793F2B06
:1010A0000CD8164B1B68FA7902F01F02012101FAD5
:1010B00002F21146114A0B43136012E0FB79052B33
:1010C0000FD9FB795F2B0CD80D4B1B68FA7902F016
:1010D0003F02012101FA02F21146094A0B43136053
:1010E000FFE700BF0C37BD4680BC704700E100E061
:1010F00004E100E00CE100E080E100E084E100E0D8
:101100008CE100E080B586B000AF78607B681B683A
:101110001B6803F040037B617B681B68DB6803F09E
:1011200040033B617B69002B21D03B69002B1ED023
:101130007B6893F82030022B19D17B689B69002BC8
:1011400015D17B681B681A687B681B6822F0400217
:101150001A607B68002283F820207B6800221A61D5
:101160007B6800229A6100217868FFF77FF97B682D
:101170001B681B6803F080037B617B681B68DB686E
:1011800003F080033B617B69002B55D03B69002B4A
:1011900052D07B6893F82030022B4DD17B689B693D
:1011A000002B3DD07B685B7B012B29D17B681B69C1
:1011B000FB60FB681B881A467B681B68C2F3080249
:1011C0005A607B689B7B002B0FD17B681B695A1C84
:1011D0007B681A617B681B695A1C7B681A617B6893
:1011E0009B699A1E7B689A611AE07B681B695A1C8E
:1011F0007B681A617B689B695A1E7B689A610FE065
:101200007B681B691A787B681B685A607B681B695E
:101210005A1C7B681A617B689B695A1E7B689A61BD
:101220007B689B69002B07D17B681B68DA687B6849
:101230001B6822F08002DA607B681B681B6803F081
:1012400020037B617B681B68DB6803F020033B6144
:101250007B69002B73D03B69002B70D07B6893F8BF
:101260002130012B6BD17B68DB69002B53D07B686D
:101270005B7B012B2FD17B689B7B002B19D17B687B
:101280001B685B689AB27B685B69C2F3080292B222
:101290001A807B685B695A1C7B685A617B685B6952
:1012A0005A1C7B685A617B68DB699A1E7B68DA612D
:1012B00031E07B681B685A687B685B69D2B21A7040
:1012C0007B685B695A1C7B685A617B68DB695A1EC4
:1012D0007B68DA611FE07B689B7B002B07D17B6812
:1012E0001B685A687B685B69D2B21A7009E07B6838
:1012F0001B685B68DAB27B685B6902F07F02D2B27E
:101300001A707B685B695A1C7B685A617B68DB6971
:101310005A1E7B68DA617B68DB69002B0FD17B6822
:101320001B68DA687B681B6822F02002DA607B6841
:10133000002283F8212001217868FFF797F87B6865
:101340001B681B6803F400737B617B681B685B6927
:1013500003F400733B617B681B685B6903F4806383
:10136000BB607B69002B0ED03B69002B0BD07B68E8
:101370001B681A687B681B6822F400721A600321DC
:101380007868FFF773F87B681B681B6803F010032D
:101390007B617B681B68DB6803F010033B617B6942
:1013A000002B0FD03B69002B0CD07B681B681B689F
:1013B0007A68126823F0100313607B610221786859
:1013C000FFF754F87B681B681B6803F003037B611D
:1013D0007B681B68DB6803F005033B617B69002BBE
:1013E00006D03B69002B03D007217868FFF73EF851
:1013F0007B681B685B6903F001033B613B69002B61
:101400001ED07B681B681B687B617B6903F002034D
:10141000002B03D005217868FFF728F87B6903F0DB
:101420000403002B03D006217868FFF71FF87B69BF
:1014300003F00803002B03D007217868FFF716F8A4
:1014400000BF1837BD4680BD014B1868704700BF0C
:101450002000002070B50D4D0D4C641BA41000261B
:10146000A64209D10B4D0C4C01F01CF8641BA410D2
:101470000026A64205D170BD55F8043B98470136B9
:10148000EEE755F8043B98470136F2E7CC25000813
:10149000CC250008CC250008D025000802440346CE
:1014A000934200D1704703F8011BF9E70FB40A4BD0
:1014B00013B51C6824B1A36913B9204600F05AFA89
:1014C00005AB049AA1680193204600F05FFC02B0CE
:1014D000BDE8104004B070472000002070B50E46F3
:1014E000054618B183690BB900F044FAAB69AC68E2
:1014F00013B9284600F03EFA2C4B9C4220D16C6870
:10150000636EDB0705D4A389980502D4A06D00F0B3
:10151000CFFAA38919071DD52369DBB1013EA36862
:1015200016F8011F013BA36039BB002B38DA2246B5
:101530000A21284600F048F8013011D00A2511E0B0
:101540001B4B9C4201D1AC68DAE71A4B9C4208BFA6
:10155000EC68D5E72146284600F088F80028DDD061
:101560004FF0FF35636EDA0705D4A3899B0502D4DB
:10157000A06D00F09EFA284670BD002B04DAA26927
:101580009A4206DC0A2904D023685A1C226019708A
:10159000C5E72246284600F017F80130BFD1DFE743
:1015A00023680A255A1C22601D70DBE758250008B5
:1015B0007825000838250008024B01461868FFF717
:1015C0008DBF00BF20000020F8B50E46144605462A
:1015D00018B183690BB900F0CDF9214B9C422BD196
:1015E0006C68A369A360A3891A072FD523696BB31D
:1015F00023692068C01A6369F6B28342374604DC67
:101600002146284600F022F930BBA368013BA360C5
:1016100023685A1C22601E7063690130834204D023
:10162000A389DB0706D50A2E04D12146284600F0FF
:101630000DF988B93846F8BD0A4B9C4201D1AC6817
:10164000CFE7094B9C4208BFEC68CAE72146284611
:1016500000F00CF80028CBD04FF0FF37EAE700BFCE
:10166000582500087825000838250008324B70B549
:101670001D6806460C4625B1AB6913B9284600F033
:1016800079F92E4B9C420FD16C68A389B4F90C20D8
:1016900019072CD4DD0611D40923336042F040032E
:1016A000A3814FF0FF303EE0254B9C4201D1AC6856
:1016B000EBE7244B9C4208BFEC68E6E7580712D5DD
:1016C000616B41B104F14403994202D0304600F00D
:1016D00057FA00236363A38923F02403A381002323
:1016E000636023692360A38943F00803A38123690E
:1016F0004BB9A38903F42073B3F5007F03D02146CF
:10170000304600F0FDF9A089B4F90C2010F0010377
:101710000AD00023A36063695B42A361236943B9D4
:1017200010F08000BAD170BD810758BF6369A36013
:10173000F4E70020F7E700BF20000020582500084C
:1017400078250008382500088A89F8B5054610076D
:101750000C4657D44B68002B04DC0B6C002B01DCCF
:101760000020F8BDE66A002EFAD0002312F4805261
:101770002F682B6032D0606DA3895A0705D5636846
:10178000C01A636B0BB1236CC01A00230246E66AD1
:10179000216A2846B047431CA38906D129681D2920
:1017A0002CD8294ACA40D60728D500226260D9041D
:1017B0002269226004D5421C01D12B6803B96065FF
:1017C000616B2F600029CBD004F14403994202D011
:1017D000284600F0D5F900206063C2E7216A0123A2
:1017E0002846B047411CC7D12B68002BC4D01D2B05
:1017F00001D0162B01D12F60B2E7A38943F040033B
:10180000A381AEE70F69002FAAD093070E6808BF27
:101810004B690F6018BF0023F61B8B60002E9FDD05
:10182000216AD4F828C033463A462846E0470028C3
:1018300006DCA38943F04003A3814FF0FF3090E71B
:101840000744361AEAE700BF0100402038B50B69AB
:1018500005460C4613B90025284638BD18B18369E2
:101860000BB900F087F8144B9C421BD16C68B4F99B
:101870000C30002BEFD0626ED00704D4990502D44F
:10188000A06D00F015F928462146FFF75DFF636E55
:10189000DA070546E0D4A3899B05DDD4A06D00F0EE
:1018A00008F9D9E7054B9C4201D1AC68DFE7044B4E
:1018B0009C4208BFEC68DAE7582500087825000844
:1018C00038250008002310B50446C0E90033C0E9FC
:1018D0000433836081814366C28183611946082293
:1018E0005C30FFF7DBFD054B6362054BA362054BE4
:1018F000E362054B2462236310BD00BF352300085B
:10190000572300088F230008B3230008014900F083
:10191000AFB800BF4D18000870B568224D1E554382
:101920000E4605F1740100F095F9044640B100211E
:10193000C0E900160C30A06005F16802FFF7AEFDAB
:10194000204670BD014800F0B3B800BFCD040020B0
:10195000014800F0AEB800BFCD040020014800F0FF
:10196000A7B800BFCE040020014800F0A2B800BF15
:10197000CE04002010B50446FFF7F0FFA3691BB1A9
:10198000BDE81040FFF7F0BFC4E912332365134BE5
:10199000134A1B68A262A34204BF0123A36120462D
:1019A00000F020F86060204600F01CF8A06020469F
:1019B00000F018F80022E06004216068FFF782FF61
:1019C000A06801220921FFF77DFFE06802221221B1
:1019D000FFF778FF0123A361D2E700BF3425000899
:1019E0000D190008F8B50746FFF7ACFF1E4B1E683F
:1019F000B36913B93046FFF7BDFF4836D6E9013465
:101A0000013B03D533680BB33668F7E7B4F90C50E4
:101A1000D5B9164BE36004F15800656600F047F84D
:101A2000FFF796FFC4E90155C4E904552560A56197
:101A30000822294604F15C00FFF730FDC4E90D558A
:101A4000C4E912552046F8BD6834D9E70421384668
:101A5000FFF762FF044630600028D5D1FFF778FF1A
:101A60000C233B60EEE700BF342500080100FFFFB8
:101A70002DE9F8430646884600F148040027D4E9DA
:101A80000195B9F1010905D52468002CF7D1384634
:101A9000BDE8F883AB89012B07D9B5F90E300133C6
:101AA00003D029463046C04707436835E9E7704709
:101AB0007047704770B50E46B1F90E10002996B008
:101AC00014461D4608DAB6F90C3000222A601A06C0
:101AD00010D44FF480630EE06A4600F091FC0028B9
:101AE000F1DB019A02F47042A2F500535A425A41C6
:101AF0002A60EEE740230020236016B070BD00008E
:101B00008B8973B59D0706460C4607D504F147033C
:101B1000236023610123636102B070BD01AB6A469B
:101B2000FFF7C8FF00990546304600F093F848B922
:101B3000B4F90C309A05EFD423F0030343F0020309
:101B4000A381E3E70D4BB362A389206043F08003D8
:101B5000A381009B6361019B20615BB1B4F90E100E
:101B6000304600F05FFC28B1A38923F0030343F063
:101B70000103A381A0890543A581CDE70D190008C4
:101B800038B50546002941D051F8043C0C1F002B04
:101B9000B8BFE41800F068FC1D4A136833B96360ED
:101BA00014602846BDE8384000F064BCA34208D960
:101BB000206821188B4201BF19685B6809182160F1
:101BC000EDE71A465B680BB1A342FAD911685018C9
:101BD000A0420BD120680144501883421160E0D12B
:101BE00018685B68536001441160DAE702D90C237E
:101BF0002B60D6E7206821188B4204BF19685B6808
:101C0000636004BF091821605460CAE738BD00BF93
:101C1000D004002070B50E4E0C463168054611B94F
:101C200000F078FB30602146284600F073FB431C2F
:101C30000AD0C41C24F00304A04207D0211A28466D
:101C400000F068FB013001D14FF0FF34204670BD39
:101C5000D40400202DE9F041CD1C25F00305083502
:101C60000C2D38BF0C25002D074601DBA94205D9F4
:101C70000C233B6000263046BDE8F0812E4E00F07C
:101C8000F3FB33681C4634BB29463846FFF7C2FFD6
:101C9000431C04464DD134682646002E40D12368AB
:101CA0003146384604EB030800F034FB80453AD156
:101CB000216803356D1A25F0030508350C2D38BF52
:101CC0000C2529463846FFF7A5FF01302BD02368A5
:101CD0002B4423600EE02268521B1ED40B2A16D917
:101CE0006119A342256018BF5960636808BF31605D
:101CF00062514B60384604F10B0600F0BBFB26F046
:101D00000706231DF21AB6D09B1BA350B3E76268E7
:101D1000A3420CBF32605A60ECE723466468B2E726
:101D200034467668B9E70C233B60384600F0A2FBE6
:101D3000A1E72560DEE700BFD00400209368013BE7
:101D4000002B10B4936007DA9469A34201DB0A29DF
:101D500002D110BCFFF738BC1368581C1060197012
:101D6000084610BC7047F8B506460F461446D5180D
:101D7000AC4201D1002007E014F8011B3A4630467E
:101D8000FFF7DCFF431CF3D1F8BD00002DE9F04F55
:101D90000D469DB014469846064618B183690BB9A6
:101DA000FFF7E8FD894B9D421BD175686B6ED90723
:101DB00005D4AB899A0502D4A86DFFF779FEAB89EB
:101DC0001B0701D52B69EBB929463046FFF74EFCBE
:101DD000C0B16B6EDC070ED54FF0FF301DB0BDE813
:101DE000F08F7B4B9D4201D1B568DFE7794B9D4277
:101DF00008BFF568DAE7AB899805EDD4A86DFFF761
:101E000058FEE9E70023099320238DF82930CDF807
:101E10000C803023DFF8C0818DF82A304FF00109A3
:101E200023469A4613F8012B0AB1252AF9D1BAEBB9
:101E3000040B0BD05B46224629463046FFF793FF42
:101E4000013000F0AA80099A5A4409929AF80030A9
:101E5000002B00F0A28000234FF0FF32CDE90523D4
:101E60000AF1010A049307938DF853301A935446EC
:101E7000052214F8011B5848FEF7C2F9049AD8B994
:101E8000D10644BF20238DF85330130744BF2B23C2
:101E90008DF853309AF800302A2B15D0079A544603
:101EA00000204FF00A0C214611F8013B303B092B72
:101EB0004ED9B0B1079214E0A0EB080309FA03F37E
:101EC00013430493A246D2E7039B191D1B68039199
:101ED000002BBBBF5B4242F0020207930793B8BFDF
:101EE000049223782E2B0CD163782A2B35D1039BB7
:101EF0001A1D1B680392002BB8BF4FF0FF3302344A
:101F00000593DFF8D8A0217803225046FEF778F930
:101F100040B14023A0EB0A0003FA00F0049B034306
:101F20000134049314F8011B2D488DF82810062263
:101F3000FEF766F900283FD02A4B1BBB039B0733F3
:101F400023F0070308330393099B3B44099367E796
:101F50000CFB02320C460120A5E700230134059357
:101F600019464FF00A0C204610F8012B303A092A86
:101F700003D9002BC5D00591C3E70CFB0121044612
:101F80000123F0E703AB00932A46174B04A9304620
:101F9000AFF300800746781CD6D16B6ED90705D405
:101FA000AB899A0502D4A86DFFF783FDAB895B0668
:101FB0003FF512AF099811E703AB00932A460A4B8D
:101FC00004A9304600F080F8E4E700BF5825000877
:101FD0007825000838250008982500089E25000867
:101FE000A225000800000000671D00082DE9F04749
:101FF000164699468A680B69DDF820809342B8BF7F
:102000001346336091F8432007460C460AB101336A
:1020100033602368990642BF336802333360256812
:1020200015F0060506D104F1190AE36832689B1A17
:10203000AB4226DC94F84320131E226818BF01230C
:1020400092062BD404F1430249463846C04701307A
:102050001ED02368E568326803F00603042B08BF2E
:10206000AD1AA36822690CBF25EAE57500259342E5
:10207000C4BF9B1AED1800261A34B5421AD10020AD
:1020800008E00123524649463846C047013003D193
:102090004FF0FF30BDE8F0870135C6E7E1185A1C64
:1020A000302081F84300224494F8451082F8431010
:1020B0000233C7E70123224649463846C04701306C
:1020C000E6D00136D9E700002DE9FF470F7E0C9DD1
:1020D000782F914680460C469A4601F1430207D874
:1020E000622F0AD8002F00F0D880582F00F0A3806C
:1020F00004F1420584F842703AE0A7F16303152B1E
:10210000F6D801A151F823F06121000875210008DB
:10211000F1200008F1200008F1200008F12000085B
:1021200075210008F1200008F1200008F1200008C6
:10213000F120000881220008A52100086322000880
:10214000F1200008F1200008A3220008F120000877
:10215000A5210008F1200008F12000086B220008EA
:102160002B681A1D1B682A6004F1420584F842306E
:102170000123A3E020682968060601F104030AD5BB
:102180000E682B60002E03DA2D23764284F843304C
:102190005E480A2319E00E682B6010F0400F18BF4C
:1021A00036B2EFE72B682068191D2960010601D5BA
:1021B0001E6802E04606FBD51E8854486F2F0CBFF0
:1021C00008230A23002184F843106568A560002DC8
:1021D000A2BF216821F0040121600EB9002D4DD06D
:1021E0001546B6FBF3F103FB1167C75D05F8017DEA
:1021F0003746BB420E46F4D9082B0BD12368DE07C5
:1022000008D5236961689942DEBF302305F8013C97
:1022100005F1FF35521B2261CDF800A04B4603AA01
:1022200021464046FFF7E2FE01304CD14FF0FF302F
:1022300004B0BDE8F087354881F845702968236807
:1022400051F8046B29601D0614D5DF0744BF43F025
:10225000200323601EB9236823F02003236010238A
:10226000B0E7236843F0200323607823284884F8EC
:102270004530E3E7590648BFB6B2E6E71546BBE787
:102280002B6826686169181D286035061B6801D512
:10229000196002E07006FBD5198000232361154602
:1022A000BAE72B681A1D2A601D686268002128465B
:1022B000FDF7A6FF08B1401B60606368236100233F
:1022C00084F84330A8E723692A4649464046D04768
:1022D0000130ABD023689B0713D4E068039B98427E
:1022E000B8BF1846A4E70123324649464046D047C6
:1022F00001309BD00135E36803995B1AAB42F2DCF5
:10230000EBE7002504F11906F5E700BFA925000851
:10231000BA25000838B5064D0023044608462B6050
:10232000FEF748F9431C02D12B6803B1236038BD86
:10233000D804002010B50C46B1F90E1000F0A0F83A
:102340000028ABBF636DA3891B1823F48053ACBF77
:102350006365A38110BD2DE9F0411F468B89DB0524
:1023600005460C46164605D5B1F90E10022300228B
:1023700000F068F8A389B4F90E1023F48053A38108
:1023800032463B462846BDE8F04100F017B810B58C
:102390000C46B1F90E1000F055F8431CA38915BF87
:1023A000606523F4805343F48053A38118BFA38155
:1023B00010BDB1F90E1000F013B8000038B5074D8C
:1023C00004460846114600222A601A46FEF7A5F880
:1023D000431C02D12B6803B1236038BDD804002010
:1023E00038B5064D0023044608462B60FEF7B1F8C9
:1023F000431C02D12B6803B1236038BDD8040020F0
:1024000038B5074D00230446084611462B60FEF7F9
:10241000ABF8431C02D12B6803B1236038BD00BF69
:10242000D804002038B5064D0023044608462B602A
:10243000FEF7A9F8431C02D12B6803B1236038BD15
:10244000D804002038B5074D04460846114600223E
:102450002A601A46FEF7A1F8431C02D12B6803B18B
:10246000236038BDD80400200148FFF721BB00BF1E
:10247000CC0400200148FFF71CBB00BFCC040020A7
:1024800038B5074D04460846114600222A601A4610
:10249000FEF726F8431C02D12B6803B1236038BD38
:1024A000D8040020F8B500BFF8BC08BC9E467047B1
:0C24B000F8B500BFF8BC08BC9E467047A1
:1024BC006869686968696869686968693132330094
:1024CC0048656C6C6F20486F772061726520796F5E
:1024DC0075203F00546F646179206973204D6F6ED5
:1024EC0064617920210000004170706C6963617433
:1024FC00696F6E2069732072756E6E696E6700006D
:10250C005472616E736D6974746564203A2025731E
:10251C000A000000526563656976656420202020FE
:10252C003A2025730A00000024000020000000005F
:10253C00000000000000000000000000000000008F
:10254C00000000000000000000000000000000007F
:10255C00000000000000000000000000000000006F
:10256C00000000000000000000000000000000005F
:10257C00000000000000000000000000000000004F
:10258C00000000000000000000000000232D302B94
:10259C002000686C4C006566674546470030313258
:1025AC0033343536373839414243444546003031AF
:1025BC00323334353637383961626364656600000E
:0425CC00D50100082D
:0425D000B10100084D
:1025D400BC240008CC240008E02400080200040005
:1025E40008001000400080000001000202040810EE
:1025F4002400002000000000582500087825000869
:102604003825000800000000000000000000000061
:1026140000000000000000000000000000000000B6
:1026240000000000000000000000000000000000A6
:102634000000000000000000000000000000000096
:102644000000000000000000000000000000000086
:042654000000000082
:0400000508000621C8
:00000001FF
